:020000040800F2
:1000000000280020E501000835020008350200083C
:100010003502000835020008350200080000000023
:100020000000000000000000000000003502000891
:100030003502000800000000350200083502000803
:1000400035020008350200083502000835020008B4
:1000500035020008350200083502000835020008A4
:100060003502000835020008350200083502000894
:100070003502000835020008350200083502000884
:100080003502000835020008350200083502000874
:100090003502000835020008350200083502000864
:1000A0003502000835020008350200083502000854
:1000B0003502000835020008350200083502000844
:1000C0003502000835020008350200083502000834
:1000D0003502000835020008350200083502000824
:1000E0003502000835020008000000003502000853
:1000F0003502000835020008350200083502000804
:1001000035020008350200083502000835020008F3
:1001100035020008350200083502000835020008E3
:1001200035020008350200083502000835020008D3
:1001300010B5054C237833B9044B13B10448AFF321
:1001400000800123237010BD00000020000000008B
:100150008002000808B5034B1BB103490348AFF305
:10016000008008BD0000000004000020800200089C
:1001700080B483B000AF00237B6002E07B68013372
:100180007B607B68044A9342F8D900BF00BF0C37FC
:10019000BD4680BC704700BFDF93040080B500AF50
:1001A0000D4B1B680C4A43F0040313600B4B1B6898
:1001B0000A4A23F00F031360084B1B68074A43F0F9
:1001C00002031360064B1B68054A83F001031360AA
:1001D000FFF7CEFF00BFF5E718100240000801400E
:1001E0000C0801400D488546AFF300800C480D49CE
:1001F0000D4A002302E0D458C4500433C4188C4282
:10020000F9D30A4A0A4C002301E013600432A242E7
:10021000FBD300F011F8FFF7C1FFFEE70028002034
:100220000000002000000020A002000800000020C4
:100230001C000020FEE7000070B500260C4D0D4CA0
:10024000641BA410A64209D100F01AF800260A4D3A
:100250000A4C641BA410A64205D170BD55F8043B9E
:1002600098470136EEE755F8043B98470136F2E728
:100270009802000898020008980200089C020008F2
:10028000F8B500BFF8BC08BC9E467047F8B500BF83
:08029000F8BC08BC9E46704753
:040298005501000804
:04029C003101000824
:04000005080001E509
:00000001FF
